{
  "contractName": "ZombieFeeding",
  "abi": [
    {
      "anonymous": false,
      "inputs": [
        {
          "indexed": false,
          "internalType": "uint256",
          "name": "zombieId",
          "type": "uint256"
        },
        {
          "indexed": false,
          "internalType": "string",
          "name": "name",
          "type": "string"
        },
        {
          "indexed": false,
          "internalType": "uint256",
          "name": "dna",
          "type": "uint256"
        }
      ],
      "name": "NewZombie",
      "type": "event"
    },
    {
      "anonymous": false,
      "inputs": [
        {
          "indexed": true,
          "internalType": "address",
          "name": "previousOwner",
          "type": "address"
        },
        {
          "indexed": true,
          "internalType": "address",
          "name": "newOwner",
          "type": "address"
        }
      ],
      "name": "OwnershipTransferred",
      "type": "event"
    },
    {
      "inputs": [
        {
          "internalType": "string",
          "name": "_name",
          "type": "string"
        }
      ],
      "name": "createRandomZombie",
      "outputs": [],
      "stateMutability": "nonpayable",
      "type": "function"
    },
    {
      "inputs": [],
      "name": "isOwner",
      "outputs": [
        {
          "internalType": "bool",
          "name": "",
          "type": "bool"
        }
      ],
      "stateMutability": "view",
      "type": "function"
    },
    {
      "inputs": [],
      "name": "owner",
      "outputs": [
        {
          "internalType": "address",
          "name": "",
          "type": "address"
        }
      ],
      "stateMutability": "view",
      "type": "function"
    },
    {
      "inputs": [],
      "name": "renounceOwnership",
      "outputs": [],
      "stateMutability": "nonpayable",
      "type": "function"
    },
    {
      "inputs": [
        {
          "internalType": "address",
          "name": "newOwner",
          "type": "address"
        }
      ],
      "name": "transferOwnership",
      "outputs": [],
      "stateMutability": "nonpayable",
      "type": "function"
    },
    {
      "inputs": [
        {
          "internalType": "uint256",
          "name": "",
          "type": "uint256"
        }
      ],
      "name": "zombieToOwner",
      "outputs": [
        {
          "internalType": "address",
          "name": "",
          "type": "address"
        }
      ],
      "stateMutability": "view",
      "type": "function"
    },
    {
      "inputs": [
        {
          "internalType": "uint256",
          "name": "",
          "type": "uint256"
        }
      ],
      "name": "zombies",
      "outputs": [
        {
          "internalType": "string",
          "name": "name",
          "type": "string"
        },
        {
          "internalType": "uint256",
          "name": "dna",
          "type": "uint256"
        },
        {
          "internalType": "uint32",
          "name": "level",
          "type": "uint32"
        },
        {
          "internalType": "uint32",
          "name": "readyTime",
          "type": "uint32"
        },
        {
          "internalType": "uint16",
          "name": "winCount",
          "type": "uint16"
        },
        {
          "internalType": "uint16",
          "name": "lossCount",
          "type": "uint16"
        }
      ],
      "stateMutability": "view",
      "type": "function"
    },
    {
      "inputs": [
        {
          "internalType": "address",
          "name": "_address",
          "type": "address"
        }
      ],
      "name": "setKittyContractAddress",
      "outputs": [],
      "stateMutability": "nonpayable",
      "type": "function"
    },
    {
      "inputs": [
        {
          "internalType": "uint256",
          "name": "_zombieId",
          "type": "uint256"
        },
        {
          "internalType": "uint256",
          "name": "_kittyId",
          "type": "uint256"
        }
      ],
      "name": "feedOnKitty",
      "outputs": [],
      "stateMutability": "nonpayable",
      "type": "function"
    }
  ],
  "bytecode": "0x60806040526010600155600154600a6200001a919062000275565b6002556201518060035534801562000030575f80fd5b50335f806101000a81548173ffffffffffffffffffffffffffffffffffffffff021916908373ffffffffffffffffffffffffffffffffffffffff1602179055505f8054906101000a900473ffffffffffffffffffffffffffffffffffffffff1673ffffffffffffffffffffffffffffffffffffffff165f73ffffffffffffffffffffffffffffffffffffffff167f8be0079c531659141344cd1fd0a4f28419497f9722a3daafe3b4186f6b6457e060405160405180910390a3620002c5565b7f4e487b71000000000000000000000000000000000000000000000000000000005f52601160045260245ffd5b5f8160011c9050919050565b5f808291508390505b60018511156200017957808604811115620001515762000150620000ef565b5b6001851615620001615780820291505b808102905062000171856200011c565b945062000131565b94509492505050565b5f8262000193576001905062000265565b81620001a2575f905062000265565b8160018114620001bb5760028114620001c657620001fc565b600191505062000265565b60ff841115620001db57620001da620000ef565b5b8360020a915084821115620001f557620001f4620000ef565b5b5062000265565b5060208310610133831016604e8410600b8410161715620002365782820a90508381111562000230576200022f620000ef565b5b62000265565b62000245848484600162000128565b925090508184048111156200025f576200025e620000ef565b5b81810290505b9392505050565b5f819050919050565b5f62000281826200026c565b91506200028e836200026c565b9250620002bd7fffffffffffffffffffffffffffffffffffffffffffffffffffffffffffffffff848462000182565b905092915050565b6116ab80620002d35f395ff3fe608060405234801561000f575f80fd5b5060043610610091575f3560e01c8063715018a611610064578063715018a6146101325780637bff0a011461013c5780638da5cb5b146101585780638f32d59b14610176578063f2fde38b1461019457610091565b806317a7f4cc146100955780632052465e146100b1578063528b7b8f146100e65780635f4623f114610116575b5f80fd5b6100af60048036038101906100aa9190610c23565b6101b0565b005b6100cb60048036038101906100c69190610c61565b6102ca565b6040516100dd96959493929190610d5f565b60405180910390f35b61010060048036038101906100fb9190610c61565b6103d2565b60405161010d9190610e04565b60405180910390f35b610130600480360381019061012b9190610e47565b610402565b005b61013a610455565b005b61015660048036038101906101519190610f9e565b61051f565b005b61016061059b565b60405161016d9190610e04565b60405180910390f35b61017e6105c2565b60405161018b9190610fff565b60405180910390f35b6101ae60048036038101906101a99190610e47565b610617565b005b5f60075f9054906101000a900473ffffffffffffffffffffffffffffffffffffffff1673ffffffffffffffffffffffffffffffffffffffff1663e98b7f4d836040518263ffffffff1660e01b815260040161020b9190611018565b61014060405180830381865afa158015610227573d5f803e3d5ffd5b505050506040513d601f19601f8201168201806040525081019061024b919061106f565b909192939495969798509091929394959697509091929394959650909192939495509091929394509091929350909192509091509050809150506102c583826040518060400160405280600581526020017f6b69747479000000000000000000000000000000000000000000000000000000815250610633565b505050565b600481815481106102d9575f80fd5b905f5260205f2090600302015f91509050805f0180546102f890611175565b80601f016020809104026020016040519081016040528092919081815260200182805461032490611175565b801561036f5780601f106103465761010080835404028352916020019161036f565b820191905f5260205f20905b81548152906001019060200180831161035257829003601f168201915b505050505090806001015490806002015f9054906101000a900463ffffffff16908060020160049054906101000a900463ffffffff16908060020160089054906101000a900461ffff169080600201600a9054906101000a900461ffff16905086565b6005602052805f5260405f205f915054906101000a900473ffffffffffffffffffffffffffffffffffffffff1681565b61040a6105c2565b610412575f80fd5b8060075f6101000a81548173ffffffffffffffffffffffffffffffffffffffff021916908373ffffffffffffffffffffffffffffffffffffffff16021790555050565b61045d6105c2565b610465575f80fd5b5f73ffffffffffffffffffffffffffffffffffffffff165f8054906101000a900473ffffffffffffffffffffffffffffffffffffffff1673ffffffffffffffffffffffffffffffffffffffff167f8be0079c531659141344cd1fd0a4f28419497f9722a3daafe3b4186f6b6457e060405160405180910390a35f805f6101000a81548173ffffffffffffffffffffffffffffffffffffffff021916908373ffffffffffffffffffffffffffffffffffffffff160217905550565b5f60065f3373ffffffffffffffffffffffffffffffffffffffff1673ffffffffffffffffffffffffffffffffffffffff1681526020019081526020015f205414610567575f80fd5b5f610571826107c6565b905060648161058091906111d2565b8161058b919061122f565b90506105978282610809565b5050565b5f805f9054906101000a900473ffffffffffffffffffffffffffffffffffffffff16905090565b5f805f9054906101000a900473ffffffffffffffffffffffffffffffffffffffff1673ffffffffffffffffffffffffffffffffffffffff163373ffffffffffffffffffffffffffffffffffffffff1614905090565b61061f6105c2565b610627575f80fd5b61063081610a69565b50565b8260055f8281526020019081526020015f205f9054906101000a900473ffffffffffffffffffffffffffffffffffffffff1673ffffffffffffffffffffffffffffffffffffffff163373ffffffffffffffffffffffffffffffffffffffff161461069b575f80fd5b5f600485815481106106b0576106af611262565b5b905f5260205f20906003020190506106c781610b5b565b6106cf575f80fd5b600254846106dd91906111d2565b93505f60028583600101546106f2919061128f565b6106fc91906112c2565b905060405160200161070d90611346565b6040516020818303038152906040528051906020012084604051602001610734919061138a565b604051602081830303815290604052805190602001200361077657606360648261075e91906111d2565b82610769919061122f565b610773919061128f565b90505b6107b56040518060400160405280600681526020017f4e6f4e616d65000000000000000000000000000000000000000000000000000081525082610809565b6107be82610b81565b505050505050565b5f80826040516020016107d9919061138a565b604051602081830303815290604052805190602001205f1c90506002548161080191906111d2565b915050919050565b60046040518060c00160405280848152602001838152602001600163ffffffff1681526020016003544261083d919061128f565b63ffffffff1681526020015f61ffff1681526020015f61ffff16815250908060018154018082558091505060019003905f5260205f2090600302015f909190919091505f820151815f019081610893919061153d565b50602082015181600101556040820151816002015f6101000a81548163ffffffff021916908363ffffffff16021790555060608201518160020160046101000a81548163ffffffff021916908363ffffffff16021790555060808201518160020160086101000a81548161ffff021916908361ffff16021790555060a082015181600201600a6101000a81548161ffff021916908361ffff16021790555050505f6001600480549050610946919061122f565b90503360055f8381526020019081526020015f205f6101000a81548173ffffffffffffffffffffffffffffffffffffffff021916908373ffffffffffffffffffffffffffffffffffffffff1602179055506109e8600160065f3373ffffffffffffffffffffffffffffffffffffffff1673ffffffffffffffffffffffffffffffffffffffff1681526020019081526020015f2054610bb490919063ffffffff16565b60065f3373ffffffffffffffffffffffffffffffffffffffff1673ffffffffffffffffffffffffffffffffffffffff1681526020019081526020015f20819055507f88f026aacbbecc90c18411df4b1185fd8d9be2470f1962f192bf84a27d0704b7818484604051610a5c9392919061160c565b60405180910390a1505050565b5f73ffffffffffffffffffffffffffffffffffffffff168173ffffffffffffffffffffffffffffffffffffffff1603610aa0575f80fd5b8073ffffffffffffffffffffffffffffffffffffffff165f8054906101000a900473ffffffffffffffffffffffffffffffffffffffff1673ffffffffffffffffffffffffffffffffffffffff167f8be0079c531659141344cd1fd0a4f28419497f9722a3daafe3b4186f6b6457e060405160405180910390a3805f806101000a81548173ffffffffffffffffffffffffffffffffffffffff021916908373ffffffffffffffffffffffffffffffffffffffff16021790555050565b5f428260020160049054906101000a900463ffffffff1663ffffffff1611159050919050565b60035442610b8f919061128f565b8160020160046101000a81548163ffffffff021916908363ffffffff16021790555050565b5f808284610bc2919061128f565b905083811015610bd557610bd4611648565b5b8091505092915050565b5f604051905090565b5f80fd5b5f80fd5b5f819050919050565b610c0281610bf0565b8114610c0c575f80fd5b50565b5f81359050610c1d81610bf9565b92915050565b5f8060408385031215610c3957610c38610be8565b5b5f610c4685828601610c0f565b9250506020610c5785828601610c0f565b9150509250929050565b5f60208284031215610c7657610c75610be8565b5b5f610c8384828501610c0f565b91505092915050565b5f81519050919050565b5f82825260208201905092915050565b5f5b83811015610cc3578082015181840152602081019050610ca8565b5f8484015250505050565b5f601f19601f8301169050919050565b5f610ce882610c8c565b610cf28185610c96565b9350610d02818560208601610ca6565b610d0b81610cce565b840191505092915050565b610d1f81610bf0565b82525050565b5f63ffffffff82169050919050565b610d3d81610d25565b82525050565b5f61ffff82169050919050565b610d5981610d43565b82525050565b5f60c0820190508181035f830152610d778189610cde565b9050610d866020830188610d16565b610d936040830187610d34565b610da06060830186610d34565b610dad6080830185610d50565b610dba60a0830184610d50565b979650505050505050565b5f73ffffffffffffffffffffffffffffffffffffffff82169050919050565b5f610dee82610dc5565b9050919050565b610dfe81610de4565b82525050565b5f602082019050610e175f830184610df5565b92915050565b610e2681610de4565b8114610e30575f80fd5b50565b5f81359050610e4181610e1d565b92915050565b5f60208284031215610e5c57610e5b610be8565b5b5f610e6984828501610e33565b91505092915050565b5f80fd5b5f80fd5b7f4e487b71000000000000000000000000000000000000000000000000000000005f52604160045260245ffd5b610eb082610cce565b810181811067ffffffffffffffff82111715610ecf57610ece610e7a565b5b80604052505050565b5f610ee1610bdf565b9050610eed8282610ea7565b919050565b5f67ffffffffffffffff821115610f0c57610f0b610e7a565b5b610f1582610cce565b9050602081019050919050565b828183375f83830152505050565b5f610f42610f3d84610ef2565b610ed8565b905082815260208101848484011115610f5e57610f5d610e76565b5b610f69848285610f22565b509392505050565b5f82601f830112610f8557610f84610e72565b5b8135610f95848260208601610f30565b91505092915050565b5f60208284031215610fb357610fb2610be8565b5b5f82013567ffffffffffffffff811115610fd057610fcf610bec565b5b610fdc84828501610f71565b91505092915050565b5f8115159050919050565b610ff981610fe5565b82525050565b5f6020820190506110125f830184610ff0565b92915050565b5f60208201905061102b5f830184610d16565b92915050565b61103a81610fe5565b8114611044575f80fd5b50565b5f8151905061105581611031565b92915050565b5f8151905061106981610bf9565b92915050565b5f805f805f805f805f806101408b8d03121561108e5761108d610be8565b5b5f61109b8d828e01611047565b9a505060206110ac8d828e01611047565b99505060406110bd8d828e0161105b565b98505060606110ce8d828e0161105b565b97505060806110df8d828e0161105b565b96505060a06110f08d828e0161105b565b95505060c06111018d828e0161105b565b94505060e06111128d828e0161105b565b9350506101006111248d828e0161105b565b9250506101206111368d828e0161105b565b9150509295989b9194979a5092959850565b7f4e487b71000000000000000000000000000000000000000000000000000000005f52602260045260245ffd5b5f600282049050600182168061118c57607f821691505b60208210810361119f5761119e611148565b5b50919050565b7f4e487b71000000000000000000000000000000000000000000000000000000005f52601260045260245ffd5b5f6111dc82610bf0565b91506111e783610bf0565b9250826111f7576111f66111a5565b5b828206905092915050565b7f4e487b71000000000000000000000000000000000000000000000000000000005f52601160045260245ffd5b5f61123982610bf0565b915061124483610bf0565b925082820390508181111561125c5761125b611202565b5b92915050565b7f4e487b71000000000000000000000000000000000000000000000000000000005f52603260045260245ffd5b5f61129982610bf0565b91506112a483610bf0565b92508282019050808211156112bc576112bb611202565b5b92915050565b5f6112cc82610bf0565b91506112d783610bf0565b9250826112e7576112e66111a5565b5b828204905092915050565b5f81905092915050565b7f6b697474790000000000000000000000000000000000000000000000000000005f82015250565b5f6113306005836112f2565b915061133b826112fc565b600582019050919050565b5f61135082611324565b9150819050919050565b5f61136482610c8c565b61136e81856112f2565b935061137e818560208601610ca6565b80840191505092915050565b5f611395828461135a565b915081905092915050565b5f819050815f5260205f209050919050565b5f6020601f8301049050919050565b5f82821b905092915050565b5f600883026113fc7fffffffffffffffffffffffffffffffffffffffffffffffffffffffffffffffff826113c1565b61140686836113c1565b95508019841693508086168417925050509392505050565b5f819050919050565b5f61144161143c61143784610bf0565b61141e565b610bf0565b9050919050565b5f819050919050565b61145a83611427565b61146e61146682611448565b8484546113cd565b825550505050565b5f90565b611482611476565b61148d818484611451565b505050565b5b818110156114b0576114a55f8261147a565b600181019050611493565b5050565b601f8211156114f5576114c6816113a0565b6114cf846113b2565b810160208510156114de578190505b6114f26114ea856113b2565b830182611492565b50505b505050565b5f82821c905092915050565b5f6115155f19846008026114fa565b1980831691505092915050565b5f61152d8383611506565b9150826002028217905092915050565b61154682610c8c565b67ffffffffffffffff81111561155f5761155e610e7a565b5b6115698254611175565b6115748282856114b4565b5f60209050601f8311600181146115a5575f8415611593578287015190505b61159d8582611522565b865550611604565b601f1984166115b3866113a0565b5f5b828110156115da578489015182556001820191506020850194506020810190506115b5565b868310156115f757848901516115f3601f891682611506565b8355505b6001600288020188555050505b505050505050565b5f60608201905061161f5f830186610d16565b81810360208301526116318185610cde565b90506116406040830184610d16565b949350505050565b7f4e487b71000000000000000000000000000000000000000000000000000000005f52600160045260245ffdfea26469706673582212206401a7a1d6848d7230fce0cb7e84690d58593f1d5562c2f5cafb47c18a3f15fd64736f6c63430008150033",
  "immutableReferences": {},
  "source": "// SPDX-License-Identifier: MIT\npragma solidity ^0.8.21;\n\nimport \"./zombiefactory.sol\";\n\nabstract contract KittyInterface {\n  function getKitty(uint256 _id) external view virtual returns (\n    bool isGestating,\n    bool isReady,\n    uint256 cooldownIndex,\n    uint256 nextActionAt,\n    uint256 siringWithId,\n    uint256 birthTime,\n    uint256 matronId,\n    uint256 sireId,\n    uint256 generation,\n    uint256 genes\n  );\n}\n\ncontract ZombieFeeding is ZombieFactory {\n\n  KittyInterface kittyContract;\n\n  modifier onlyOwnerOf(uint _zombieId) {\n    require(msg.sender == zombieToOwner[_zombieId]);\n    _;\n  }\n\n  function setKittyContractAddress(address _address) external onlyOwner {\n    kittyContract = KittyInterface(_address);\n  }\n\n  function _triggerCooldown(Zombie storage _zombie) internal {\n    _zombie.readyTime = uint32(block.timestamp + cooldownTime);\n  }\n\n  function _isReady(Zombie storage _zombie) internal view returns (bool) {\n      return (_zombie.readyTime <= block.timestamp);\n  }\n\n  function feedAndMultiply(uint _zombieId, uint _targetDna, string memory _species) internal onlyOwnerOf(_zombieId) {\n    Zombie storage myZombie = zombies[_zombieId];\n    require(_isReady(myZombie));\n    _targetDna = _targetDna % dnaModulus;\n    uint newDna = (myZombie.dna + _targetDna) / 2;\n    if (keccak256(abi.encodePacked(_species)) == keccak256(abi.encodePacked(\"kitty\"))) {\n      newDna = newDna - newDna % 100 + 99;\n    }\n    _createZombie(\"NoName\", newDna);\n    _triggerCooldown(myZombie);\n  }\n\n  function feedOnKitty(uint _zombieId, uint _kittyId) public {\n    uint kittyDna;\n    (,,,,,,,,,kittyDna) = kittyContract.getKitty(_kittyId);\n    feedAndMultiply(_zombieId, kittyDna, \"kitty\");\n  }\n}\n",
  "sourcePath": "/Users/ryohei.fujihara/truffle-cryptozombies/contracts/zombiefeeding.sol",
  "compiler": {
    "name": "solc",
    "version": "0.8.21+commit.d9974bed.Emscripten.clang"
  },
  "schemaVersion": "3.4.16",
  "updatedAt": "2024-04-12T23:49:08.355Z",
  "devdoc": {
    "kind": "dev",
    "methods": {
      "isOwner()": {
        "returns": {
          "_0": "true if `msg.sender` is the owner of the contract."
        }
      },
      "owner()": {
        "returns": {
          "_0": "the address of the owner."
        }
      },
      "renounceOwnership()": {
        "details": "Allows the current owner to relinquish control of the contract."
      },
      "transferOwnership(address)": {
        "details": "Allows the current owner to transfer control of the contract to a newOwner.",
        "params": {
          "newOwner": "The address to transfer ownership to."
        }
      }
    },
    "version": 1
  },
  "userdoc": {
    "kind": "user",
    "methods": {
      "renounceOwnership()": {
        "notice": "Renouncing to ownership will leave the contract without an owner. It will not be possible to call the functions with the `onlyOwner` modifier anymore."
      }
    },
    "version": 1
  }
}