{
  "contractName": "ZombieFactory",
  "abi": [
    {
      "anonymous": false,
      "inputs": [
        {
          "indexed": false,
          "internalType": "uint256",
          "name": "zombieId",
          "type": "uint256"
        },
        {
          "indexed": false,
          "internalType": "string",
          "name": "name",
          "type": "string"
        },
        {
          "indexed": false,
          "internalType": "uint256",
          "name": "dna",
          "type": "uint256"
        }
      ],
      "name": "NewZombie",
      "type": "event"
    },
    {
      "anonymous": false,
      "inputs": [
        {
          "indexed": true,
          "internalType": "address",
          "name": "previousOwner",
          "type": "address"
        },
        {
          "indexed": true,
          "internalType": "address",
          "name": "newOwner",
          "type": "address"
        }
      ],
      "name": "OwnershipTransferred",
      "type": "event"
    },
    {
      "inputs": [],
      "name": "isOwner",
      "outputs": [
        {
          "internalType": "bool",
          "name": "",
          "type": "bool"
        }
      ],
      "stateMutability": "view",
      "type": "function"
    },
    {
      "inputs": [],
      "name": "owner",
      "outputs": [
        {
          "internalType": "address",
          "name": "",
          "type": "address"
        }
      ],
      "stateMutability": "view",
      "type": "function"
    },
    {
      "inputs": [],
      "name": "renounceOwnership",
      "outputs": [],
      "stateMutability": "nonpayable",
      "type": "function"
    },
    {
      "inputs": [
        {
          "internalType": "address",
          "name": "newOwner",
          "type": "address"
        }
      ],
      "name": "transferOwnership",
      "outputs": [],
      "stateMutability": "nonpayable",
      "type": "function"
    },
    {
      "inputs": [
        {
          "internalType": "uint256",
          "name": "",
          "type": "uint256"
        }
      ],
      "name": "zombieToOwner",
      "outputs": [
        {
          "internalType": "address",
          "name": "",
          "type": "address"
        }
      ],
      "stateMutability": "view",
      "type": "function"
    },
    {
      "inputs": [
        {
          "internalType": "uint256",
          "name": "",
          "type": "uint256"
        }
      ],
      "name": "zombies",
      "outputs": [
        {
          "internalType": "string",
          "name": "name",
          "type": "string"
        },
        {
          "internalType": "uint256",
          "name": "dna",
          "type": "uint256"
        },
        {
          "internalType": "uint32",
          "name": "level",
          "type": "uint32"
        },
        {
          "internalType": "uint32",
          "name": "readyTime",
          "type": "uint32"
        },
        {
          "internalType": "uint16",
          "name": "winCount",
          "type": "uint16"
        },
        {
          "internalType": "uint16",
          "name": "lossCount",
          "type": "uint16"
        }
      ],
      "stateMutability": "view",
      "type": "function"
    },
    {
      "inputs": [
        {
          "internalType": "string",
          "name": "_name",
          "type": "string"
        }
      ],
      "name": "createRandomZombie",
      "outputs": [],
      "stateMutability": "nonpayable",
      "type": "function"
    }
  ],
  "bytecode": "0x60806040526010600155600154600a6200001a919062000275565b6002556201518060035534801562000030575f80fd5b50335f806101000a81548173ffffffffffffffffffffffffffffffffffffffff021916908373ffffffffffffffffffffffffffffffffffffffff1602179055505f8054906101000a900473ffffffffffffffffffffffffffffffffffffffff1673ffffffffffffffffffffffffffffffffffffffff165f73ffffffffffffffffffffffffffffffffffffffff167f8be0079c531659141344cd1fd0a4f28419497f9722a3daafe3b4186f6b6457e060405160405180910390a3620002c5565b7f4e487b71000000000000000000000000000000000000000000000000000000005f52601160045260245ffd5b5f8160011c9050919050565b5f808291508390505b60018511156200017957808604811115620001515762000150620000ef565b5b6001851615620001615780820291505b808102905062000171856200011c565b945062000131565b94509492505050565b5f8262000193576001905062000265565b81620001a2575f905062000265565b8160018114620001bb5760028114620001c657620001fc565b600191505062000265565b60ff841115620001db57620001da620000ef565b5b8360020a915084821115620001f557620001f4620000ef565b5b5062000265565b5060208310610133831016604e8410600b8410161715620002365782820a90508381111562000230576200022f620000ef565b5b62000265565b62000245848484600162000128565b925090508184048111156200025f576200025e620000ef565b5b81810290505b9392505050565b5f819050919050565b5f62000281826200026c565b91506200028e836200026c565b9250620002bd7fffffffffffffffffffffffffffffffffffffffffffffffffffffffffffffffff848462000182565b905092915050565b6110db80620002d35f395ff3fe608060405234801561000f575f80fd5b506004361061007b575f3560e01c80637bff0a01116100595780637bff0a01146100ee5780638da5cb5b1461010a5780638f32d59b14610128578063f2fde38b146101465761007b565b80632052465e1461007f578063528b7b8f146100b4578063715018a6146100e4575b5f80fd5b6100996004803603810190610094919061087c565b610162565b6040516100ab9695949392919061097a565b60405180910390f35b6100ce60048036038101906100c9919061087c565b61026a565b6040516100db9190610a1f565b60405180910390f35b6100ec61029a565b005b61010860048036038101906101039190610b64565b610364565b005b6101126103e0565b60405161011f9190610a1f565b60405180910390f35b610130610407565b60405161013d9190610bc5565b60405180910390f35b610160600480360381019061015b9190610c08565b61045c565b005b60048181548110610171575f80fd5b905f5260205f2090600302015f91509050805f01805461019090610c60565b80601f01602080910402602001604051908101604052809291908181526020018280546101bc90610c60565b80156102075780601f106101de57610100808354040283529160200191610207565b820191905f5260205f20905b8154815290600101906020018083116101ea57829003601f168201915b505050505090806001015490806002015f9054906101000a900463ffffffff16908060020160049054906101000a900463ffffffff16908060020160089054906101000a900461ffff169080600201600a9054906101000a900461ffff16905086565b6005602052805f5260405f205f915054906101000a900473ffffffffffffffffffffffffffffffffffffffff1681565b6102a2610407565b6102aa575f80fd5b5f73ffffffffffffffffffffffffffffffffffffffff165f8054906101000a900473ffffffffffffffffffffffffffffffffffffffff1673ffffffffffffffffffffffffffffffffffffffff167f8be0079c531659141344cd1fd0a4f28419497f9722a3daafe3b4186f6b6457e060405160405180910390a35f805f6101000a81548173ffffffffffffffffffffffffffffffffffffffff021916908373ffffffffffffffffffffffffffffffffffffffff160217905550565b5f60065f3373ffffffffffffffffffffffffffffffffffffffff1673ffffffffffffffffffffffffffffffffffffffff1681526020019081526020015f2054146103ac575f80fd5b5f6103b682610478565b90506064816103c59190610cbd565b816103d09190610d1a565b90506103dc82826104bb565b5050565b5f805f9054906101000a900473ffffffffffffffffffffffffffffffffffffffff16905090565b5f805f9054906101000a900473ffffffffffffffffffffffffffffffffffffffff1673ffffffffffffffffffffffffffffffffffffffff163373ffffffffffffffffffffffffffffffffffffffff1614905090565b610464610407565b61046c575f80fd5b6104758161071b565b50565b5f808260405160200161048b9190610d87565b604051602081830303815290604052805190602001205f1c9050600254816104b39190610cbd565b915050919050565b60046040518060c00160405280848152602001838152602001600163ffffffff168152602001600354426104ef9190610d9d565b63ffffffff1681526020015f61ffff1681526020015f61ffff16815250908060018154018082558091505060019003905f5260205f2090600302015f909190919091505f820151815f0190816105459190610f6d565b50602082015181600101556040820151816002015f6101000a81548163ffffffff021916908363ffffffff16021790555060608201518160020160046101000a81548163ffffffff021916908363ffffffff16021790555060808201518160020160086101000a81548161ffff021916908361ffff16021790555060a082015181600201600a6101000a81548161ffff021916908361ffff16021790555050505f60016004805490506105f89190610d1a565b90503360055f8381526020019081526020015f205f6101000a81548173ffffffffffffffffffffffffffffffffffffffff021916908373ffffffffffffffffffffffffffffffffffffffff16021790555061069a600160065f3373ffffffffffffffffffffffffffffffffffffffff1673ffffffffffffffffffffffffffffffffffffffff1681526020019081526020015f205461080d90919063ffffffff16565b60065f3373ffffffffffffffffffffffffffffffffffffffff1673ffffffffffffffffffffffffffffffffffffffff1681526020019081526020015f20819055507f88f026aacbbecc90c18411df4b1185fd8d9be2470f1962f192bf84a27d0704b781848460405161070e9392919061103c565b60405180910390a1505050565b5f73ffffffffffffffffffffffffffffffffffffffff168173ffffffffffffffffffffffffffffffffffffffff1603610752575f80fd5b8073ffffffffffffffffffffffffffffffffffffffff165f8054906101000a900473ffffffffffffffffffffffffffffffffffffffff1673ffffffffffffffffffffffffffffffffffffffff167f8be0079c531659141344cd1fd0a4f28419497f9722a3daafe3b4186f6b6457e060405160405180910390a3805f806101000a81548173ffffffffffffffffffffffffffffffffffffffff021916908373ffffffffffffffffffffffffffffffffffffffff16021790555050565b5f80828461081b9190610d9d565b90508381101561082e5761082d611078565b5b8091505092915050565b5f604051905090565b5f80fd5b5f80fd5b5f819050919050565b61085b81610849565b8114610865575f80fd5b50565b5f8135905061087681610852565b92915050565b5f6020828403121561089157610890610841565b5b5f61089e84828501610868565b91505092915050565b5f81519050919050565b5f82825260208201905092915050565b5f5b838110156108de5780820151818401526020810190506108c3565b5f8484015250505050565b5f601f19601f8301169050919050565b5f610903826108a7565b61090d81856108b1565b935061091d8185602086016108c1565b610926816108e9565b840191505092915050565b61093a81610849565b82525050565b5f63ffffffff82169050919050565b61095881610940565b82525050565b5f61ffff82169050919050565b6109748161095e565b82525050565b5f60c0820190508181035f83015261099281896108f9565b90506109a16020830188610931565b6109ae604083018761094f565b6109bb606083018661094f565b6109c8608083018561096b565b6109d560a083018461096b565b979650505050505050565b5f73ffffffffffffffffffffffffffffffffffffffff82169050919050565b5f610a09826109e0565b9050919050565b610a19816109ff565b82525050565b5f602082019050610a325f830184610a10565b92915050565b5f80fd5b5f80fd5b7f4e487b71000000000000000000000000000000000000000000000000000000005f52604160045260245ffd5b610a76826108e9565b810181811067ffffffffffffffff82111715610a9557610a94610a40565b5b80604052505050565b5f610aa7610838565b9050610ab38282610a6d565b919050565b5f67ffffffffffffffff821115610ad257610ad1610a40565b5b610adb826108e9565b9050602081019050919050565b828183375f83830152505050565b5f610b08610b0384610ab8565b610a9e565b905082815260208101848484011115610b2457610b23610a3c565b5b610b2f848285610ae8565b509392505050565b5f82601f830112610b4b57610b4a610a38565b5b8135610b5b848260208601610af6565b91505092915050565b5f60208284031215610b7957610b78610841565b5b5f82013567ffffffffffffffff811115610b9657610b95610845565b5b610ba284828501610b37565b91505092915050565b5f8115159050919050565b610bbf81610bab565b82525050565b5f602082019050610bd85f830184610bb6565b92915050565b610be7816109ff565b8114610bf1575f80fd5b50565b5f81359050610c0281610bde565b92915050565b5f60208284031215610c1d57610c1c610841565b5b5f610c2a84828501610bf4565b91505092915050565b7f4e487b71000000000000000000000000000000000000000000000000000000005f52602260045260245ffd5b5f6002820490506001821680610c7757607f821691505b602082108103610c8a57610c89610c33565b5b50919050565b7f4e487b71000000000000000000000000000000000000000000000000000000005f52601260045260245ffd5b5f610cc782610849565b9150610cd283610849565b925082610ce257610ce1610c90565b5b828206905092915050565b7f4e487b71000000000000000000000000000000000000000000000000000000005f52601160045260245ffd5b5f610d2482610849565b9150610d2f83610849565b9250828203905081811115610d4757610d46610ced565b5b92915050565b5f81905092915050565b5f610d61826108a7565b610d6b8185610d4d565b9350610d7b8185602086016108c1565b80840191505092915050565b5f610d928284610d57565b915081905092915050565b5f610da782610849565b9150610db283610849565b9250828201905080821115610dca57610dc9610ced565b5b92915050565b5f819050815f5260205f209050919050565b5f6020601f8301049050919050565b5f82821b905092915050565b5f60088302610e2c7fffffffffffffffffffffffffffffffffffffffffffffffffffffffffffffffff82610df1565b610e368683610df1565b95508019841693508086168417925050509392505050565b5f819050919050565b5f610e71610e6c610e6784610849565b610e4e565b610849565b9050919050565b5f819050919050565b610e8a83610e57565b610e9e610e9682610e78565b848454610dfd565b825550505050565b5f90565b610eb2610ea6565b610ebd818484610e81565b505050565b5b81811015610ee057610ed55f82610eaa565b600181019050610ec3565b5050565b601f821115610f2557610ef681610dd0565b610eff84610de2565b81016020851015610f0e578190505b610f22610f1a85610de2565b830182610ec2565b50505b505050565b5f82821c905092915050565b5f610f455f1984600802610f2a565b1980831691505092915050565b5f610f5d8383610f36565b9150826002028217905092915050565b610f76826108a7565b67ffffffffffffffff811115610f8f57610f8e610a40565b5b610f998254610c60565b610fa4828285610ee4565b5f60209050601f831160018114610fd5575f8415610fc3578287015190505b610fcd8582610f52565b865550611034565b601f198416610fe386610dd0565b5f5b8281101561100a57848901518255600182019150602085019450602081019050610fe5565b868310156110275784890151611023601f891682610f36565b8355505b6001600288020188555050505b505050505050565b5f60608201905061104f5f830186610931565b818103602083015261106181856108f9565b90506110706040830184610931565b949350505050565b7f4e487b71000000000000000000000000000000000000000000000000000000005f52600160045260245ffdfea2646970667358221220f8db6e306013db77f7c1aea5635709f93835246b620051d7a8cdd31faa55cc5964736f6c63430008150033",
  "immutableReferences": {},
  "source": "// SPDX-License-Identifier: MIT\npragma solidity ^0.8.21;\n\nimport \"./ownable.sol\";\nimport \"./safemath.sol\";\n\ncontract ZombieFactory is Ownable {\n\n  using SafeMath for uint256;\n  // 1. Declare using SafeMath32 for uint32\n  // 2. Declare using SafeMath16 for uint16\n  using SafeMath32 for uint32;\n  using SafeMath16 for uint16;\n\n  event NewZombie(uint zombieId, string name, uint dna);\n\n  uint dnaDigits = 16;\n  uint dnaModulus = 10 ** dnaDigits;\n  uint cooldownTime = 1 days;\n\n  struct Zombie {\n    string name;\n    uint dna;\n    uint32 level;\n    uint32 readyTime;\n    uint16 winCount;\n    uint16 lossCount;\n  }\n\n  Zombie[] public zombies;\n\n  mapping (uint => address) public zombieToOwner;\n  mapping (address => uint) ownerZombieCount;\n\n  function _createZombie(string memory _name, uint _dna) internal {\n    // Note: We chose not to prevent the year 2038 problem... So don't need\n    // worry about overflows on readyTime. Our app is screwed in 2038 anyway ;)\n    zombies.push(Zombie(_name, _dna, 1, uint32(block.timestamp + cooldownTime), 0, 0));\n    uint id = zombies.length - 1;\n    zombieToOwner[id] = msg.sender;\n    // 3. Let's use SafeMath's `add` here:\n    ownerZombieCount[msg.sender] = ownerZombieCount[msg.sender].add(1);\n    emit NewZombie(id, _name, _dna);\n  }\n\n  function _generateRandomDna(string memory _str) private view returns (uint) {\n    uint rand = uint(keccak256(abi.encodePacked(_str)));\n    return rand % dnaModulus;\n  }\n\n  function createRandomZombie(string memory _name) public {\n    require(ownerZombieCount[msg.sender] == 0);\n    uint randDna = _generateRandomDna(_name);\n    randDna = randDna - randDna % 100;\n    _createZombie(_name, randDna);\n  }\n\n}\n",
  "sourcePath": "/Users/ryohei.fujihara/truffle-cryptozombies/contracts/zombiefactory.sol",
  "compiler": {
    "name": "solc",
    "version": "0.8.21+commit.d9974bed.Emscripten.clang"
  },
  "schemaVersion": "3.4.16",
  "updatedAt": "2024-04-12T23:49:08.353Z",
  "devdoc": {
    "kind": "dev",
    "methods": {
      "isOwner()": {
        "returns": {
          "_0": "true if `msg.sender` is the owner of the contract."
        }
      },
      "owner()": {
        "returns": {
          "_0": "the address of the owner."
        }
      },
      "renounceOwnership()": {
        "details": "Allows the current owner to relinquish control of the contract."
      },
      "transferOwnership(address)": {
        "details": "Allows the current owner to transfer control of the contract to a newOwner.",
        "params": {
          "newOwner": "The address to transfer ownership to."
        }
      }
    },
    "version": 1
  },
  "userdoc": {
    "kind": "user",
    "methods": {
      "renounceOwnership()": {
        "notice": "Renouncing to ownership will leave the contract without an owner. It will not be possible to call the functions with the `onlyOwner` modifier anymore."
      }
    },
    "version": 1
  }
}