{
  "contractName": "ZombieOwnership",
  "abi": [
    {
      "anonymous": false,
      "inputs": [
        {
          "indexed": true,
          "internalType": "address",
          "name": "_owner",
          "type": "address"
        },
        {
          "indexed": true,
          "internalType": "address",
          "name": "_approved",
          "type": "address"
        },
        {
          "indexed": true,
          "internalType": "uint256",
          "name": "_tokenId",
          "type": "uint256"
        }
      ],
      "name": "Approval",
      "type": "event"
    },
    {
      "anonymous": false,
      "inputs": [
        {
          "indexed": false,
          "internalType": "uint256",
          "name": "zombieId",
          "type": "uint256"
        },
        {
          "indexed": false,
          "internalType": "string",
          "name": "name",
          "type": "string"
        },
        {
          "indexed": false,
          "internalType": "uint256",
          "name": "dna",
          "type": "uint256"
        }
      ],
      "name": "NewZombie",
      "type": "event"
    },
    {
      "anonymous": false,
      "inputs": [
        {
          "indexed": true,
          "internalType": "address",
          "name": "previousOwner",
          "type": "address"
        },
        {
          "indexed": true,
          "internalType": "address",
          "name": "newOwner",
          "type": "address"
        }
      ],
      "name": "OwnershipTransferred",
      "type": "event"
    },
    {
      "anonymous": false,
      "inputs": [
        {
          "indexed": true,
          "internalType": "address",
          "name": "_from",
          "type": "address"
        },
        {
          "indexed": true,
          "internalType": "address",
          "name": "_to",
          "type": "address"
        },
        {
          "indexed": true,
          "internalType": "uint256",
          "name": "_tokenId",
          "type": "uint256"
        }
      ],
      "name": "Transfer",
      "type": "event"
    },
    {
      "inputs": [
        {
          "internalType": "uint256",
          "name": "_zombieId",
          "type": "uint256"
        },
        {
          "internalType": "uint256",
          "name": "_targetId",
          "type": "uint256"
        }
      ],
      "name": "attack",
      "outputs": [],
      "stateMutability": "nonpayable",
      "type": "function"
    },
    {
      "inputs": [
        {
          "internalType": "uint256",
          "name": "_zombieId",
          "type": "uint256"
        },
        {
          "internalType": "uint256",
          "name": "_newDna",
          "type": "uint256"
        }
      ],
      "name": "changeDna",
      "outputs": [],
      "stateMutability": "nonpayable",
      "type": "function"
    },
    {
      "inputs": [
        {
          "internalType": "uint256",
          "name": "_zombieId",
          "type": "uint256"
        },
        {
          "internalType": "string",
          "name": "_newName",
          "type": "string"
        }
      ],
      "name": "changeName",
      "outputs": [],
      "stateMutability": "nonpayable",
      "type": "function"
    },
    {
      "inputs": [
        {
          "internalType": "string",
          "name": "_name",
          "type": "string"
        }
      ],
      "name": "createRandomZombie",
      "outputs": [],
      "stateMutability": "nonpayable",
      "type": "function"
    },
    {
      "inputs": [
        {
          "internalType": "uint256",
          "name": "_zombieId",
          "type": "uint256"
        },
        {
          "internalType": "uint256",
          "name": "_kittyId",
          "type": "uint256"
        }
      ],
      "name": "feedOnKitty",
      "outputs": [],
      "stateMutability": "nonpayable",
      "type": "function"
    },
    {
      "inputs": [
        {
          "internalType": "address",
          "name": "_owner",
          "type": "address"
        }
      ],
      "name": "getZombiesByOwner",
      "outputs": [
        {
          "internalType": "uint256[]",
          "name": "",
          "type": "uint256[]"
        }
      ],
      "stateMutability": "view",
      "type": "function"
    },
    {
      "inputs": [],
      "name": "isOwner",
      "outputs": [
        {
          "internalType": "bool",
          "name": "",
          "type": "bool"
        }
      ],
      "stateMutability": "view",
      "type": "function"
    },
    {
      "inputs": [
        {
          "internalType": "uint256",
          "name": "_zombieId",
          "type": "uint256"
        }
      ],
      "name": "levelUp",
      "outputs": [],
      "stateMutability": "payable",
      "type": "function"
    },
    {
      "inputs": [],
      "name": "owner",
      "outputs": [
        {
          "internalType": "address",
          "name": "",
          "type": "address"
        }
      ],
      "stateMutability": "view",
      "type": "function"
    },
    {
      "inputs": [],
      "name": "renounceOwnership",
      "outputs": [],
      "stateMutability": "nonpayable",
      "type": "function"
    },
    {
      "inputs": [
        {
          "internalType": "address",
          "name": "_address",
          "type": "address"
        }
      ],
      "name": "setKittyContractAddress",
      "outputs": [],
      "stateMutability": "nonpayable",
      "type": "function"
    },
    {
      "inputs": [
        {
          "internalType": "uint256",
          "name": "_fee",
          "type": "uint256"
        }
      ],
      "name": "setLevelUpFee",
      "outputs": [],
      "stateMutability": "nonpayable",
      "type": "function"
    },
    {
      "inputs": [
        {
          "internalType": "address",
          "name": "newOwner",
          "type": "address"
        }
      ],
      "name": "transferOwnership",
      "outputs": [],
      "stateMutability": "nonpayable",
      "type": "function"
    },
    {
      "inputs": [],
      "name": "withdraw",
      "outputs": [],
      "stateMutability": "nonpayable",
      "type": "function"
    },
    {
      "inputs": [
        {
          "internalType": "uint256",
          "name": "",
          "type": "uint256"
        }
      ],
      "name": "zombieToOwner",
      "outputs": [
        {
          "internalType": "address",
          "name": "",
          "type": "address"
        }
      ],
      "stateMutability": "view",
      "type": "function"
    },
    {
      "inputs": [
        {
          "internalType": "uint256",
          "name": "",
          "type": "uint256"
        }
      ],
      "name": "zombies",
      "outputs": [
        {
          "internalType": "string",
          "name": "name",
          "type": "string"
        },
        {
          "internalType": "uint256",
          "name": "dna",
          "type": "uint256"
        },
        {
          "internalType": "uint32",
          "name": "level",
          "type": "uint32"
        },
        {
          "internalType": "uint32",
          "name": "readyTime",
          "type": "uint32"
        },
        {
          "internalType": "uint16",
          "name": "winCount",
          "type": "uint16"
        },
        {
          "internalType": "uint16",
          "name": "lossCount",
          "type": "uint16"
        }
      ],
      "stateMutability": "view",
      "type": "function"
    },
    {
      "inputs": [
        {
          "internalType": "address",
          "name": "_owner",
          "type": "address"
        }
      ],
      "name": "balanceOf",
      "outputs": [
        {
          "internalType": "uint256",
          "name": "",
          "type": "uint256"
        }
      ],
      "stateMutability": "view",
      "type": "function"
    },
    {
      "inputs": [
        {
          "internalType": "uint256",
          "name": "_tokenId",
          "type": "uint256"
        }
      ],
      "name": "ownerOf",
      "outputs": [
        {
          "internalType": "address",
          "name": "",
          "type": "address"
        }
      ],
      "stateMutability": "view",
      "type": "function"
    },
    {
      "inputs": [
        {
          "internalType": "address",
          "name": "_from",
          "type": "address"
        },
        {
          "internalType": "address",
          "name": "_to",
          "type": "address"
        },
        {
          "internalType": "uint256",
          "name": "_tokenId",
          "type": "uint256"
        }
      ],
      "name": "transferFrom",
      "outputs": [],
      "stateMutability": "payable",
      "type": "function"
    },
    {
      "inputs": [
        {
          "internalType": "address",
          "name": "_approved",
          "type": "address"
        },
        {
          "internalType": "uint256",
          "name": "_tokenId",
          "type": "uint256"
        }
      ],
      "name": "approve",
      "outputs": [],
      "stateMutability": "payable",
      "type": "function"
    }
  ],
  "bytecode": "0x60806040526010600155600154600a6200001a919062000289565b6002556201518060035566038d7ea4c680006008555f6009556046600a5534801562000044575f80fd5b50335f806101000a81548173ffffffffffffffffffffffffffffffffffffffff021916908373ffffffffffffffffffffffffffffffffffffffff1602179055505f8054906101000a900473ffffffffffffffffffffffffffffffffffffffff1673ffffffffffffffffffffffffffffffffffffffff165f73ffffffffffffffffffffffffffffffffffffffff167f8be0079c531659141344cd1fd0a4f28419497f9722a3daafe3b4186f6b6457e060405160405180910390a3620002d9565b7f4e487b71000000000000000000000000000000000000000000000000000000005f52601160045260245ffd5b5f8160011c9050919050565b5f808291508390505b60018511156200018d5780860481111562000165576200016462000103565b5b6001851615620001755780820291505b8081029050620001858562000130565b945062000145565b94509492505050565b5f82620001a7576001905062000279565b81620001b6575f905062000279565b8160018114620001cf5760028114620001da5762000210565b600191505062000279565b60ff841115620001ef57620001ee62000103565b5b8360020a91508482111562000209576200020862000103565b5b5062000279565b5060208310610133831016604e8410600b84101617156200024a5782820a90508381111562000244576200024362000103565b5b62000279565b6200025984848460016200013c565b9250905081840481111562000273576200027262000103565b5b81810290505b9392505050565b5f819050919050565b5f620002958262000280565b9150620002a28362000280565b9250620002d17fffffffffffffffffffffffffffffffffffffffffffffffffffffffffffffffff848462000196565b905092915050565b61299680620002e75f395ff3fe60806040526004361061011e575f3560e01c80636352211e1161009f5780638f32d59b116100635780638f32d59b1461039d578063c39cbef1146103c7578063ccf670f8146103ef578063e1fa763814610417578063f2fde38b1461043f5761011e565b80636352211e146102bd57806370a08231146102f9578063715018a6146103355780637bff0a011461034b5780638da5cb5b146103735761011e565b80633ccfd60b116100e65780633ccfd60b146101df5780634412e104146101f5578063528b7b8f146102315780635f4623f11461026d5780635faf2880146102955761011e565b8063095ea7b3146101225780630ce90ec21461013e57806317a7f4cc1461015a5780632052465e1461018257806323b872dd146101c3575b5f80fd5b61013c60048036038101906101379190611aff565b610467565b005b61015860048036038101906101539190611b3d565b61057e565b005b348015610165575f80fd5b50610180600480360381019061017b9190611b68565b61060d565b005b34801561018d575f80fd5b506101a860048036038101906101a39190611b3d565b610727565b6040516101ba96959493929190611c79565b60405180910390f35b6101dd60048036038101906101d89190611cdf565b61082f565b005b3480156101ea575f80fd5b506101f361090c565b005b348015610200575f80fd5b5061021b60048036038101906102169190611d2f565b61096e565b6040516102289190611e11565b60405180910390f35b34801561023c575f80fd5b5061025760048036038101906102529190611b3d565b610ab9565b6040516102649190611e40565b60405180910390f35b348015610278575f80fd5b50610293600480360381019061028e9190611d2f565b610ae9565b005b3480156102a0575f80fd5b506102bb60048036038101906102b69190611b68565b610b3c565b005b3480156102c8575f80fd5b506102e360048036038101906102de9190611b3d565b610c1a565b6040516102f09190611e40565b60405180910390f35b348015610304575f80fd5b5061031f600480360381019061031a9190611d2f565b610c53565b60405161032c9190611e59565b60405180910390f35b348015610340575f80fd5b50610349610c99565b005b348015610356575f80fd5b50610371600480360381019061036c9190611f9e565b610d63565b005b34801561037e575f80fd5b50610387610ddf565b6040516103949190611e40565b60405180910390f35b3480156103a8575f80fd5b506103b1610e06565b6040516103be9190611fff565b60405180910390f35b3480156103d2575f80fd5b506103ed60048036038101906103e89190612075565b610e5b565b005b3480156103fa575f80fd5b5061041560048036038101906104109190611b3d565b610f44565b005b348015610422575f80fd5b5061043d60048036038101906104389190611b68565b610f5e565b005b34801561044a575f80fd5b5061046560048036038101906104609190611d2f565b611247565b005b8060055f8281526020019081526020015f205f9054906101000a900473ffffffffffffffffffffffffffffffffffffffff1673ffffffffffffffffffffffffffffffffffffffff163373ffffffffffffffffffffffffffffffffffffffff16146104cf575f80fd5b82600b5f8481526020019081526020015f205f6101000a81548173ffffffffffffffffffffffffffffffffffffffff021916908373ffffffffffffffffffffffffffffffffffffffff160217905550818373ffffffffffffffffffffffffffffffffffffffff163373ffffffffffffffffffffffffffffffffffffffff167f8c5be1e5ebec7d5bd14f71427d1e84f3dd0314c0f7b2291e5b200ac8c7c3b92560405160405180910390a4505050565b600854341461058b575f80fd5b6001600482815481106105a1576105a06120d2565b5b905f5260205f2090600302016002015f9054906101000a900463ffffffff166105ca919061212c565b600482815481106105de576105dd6120d2565b5b905f5260205f2090600302016002015f6101000a81548163ffffffff021916908363ffffffff16021790555050565b5f60075f9054906101000a900473ffffffffffffffffffffffffffffffffffffffff1673ffffffffffffffffffffffffffffffffffffffff1663e98b7f4d836040518263ffffffff1660e01b81526004016106689190611e59565b61014060405180830381865afa158015610684573d5f803e3d5ffd5b505050506040513d601f19601f820116820180604052508101906106a891906121a1565b9091929394959697985090919293949596975090919293949596509091929394955090919293945090919293509091925090915090508091505061072283826040518060400160405280600581526020017f6b69747479000000000000000000000000000000000000000000000000000000815250611263565b505050565b60048181548110610736575f80fd5b905f5260205f2090600302015f91509050805f018054610755906122a7565b80601f0160208091040260200160405190810160405280929190818152602001828054610781906122a7565b80156107cc5780601f106107a3576101008083540402835291602001916107cc565b820191905f5260205f20905b8154815290600101906020018083116107af57829003601f168201915b505050505090806001015490806002015f9054906101000a900463ffffffff16908060020160049054906101000a900463ffffffff16908060020160089054906101000a900461ffff169080600201600a9054906101000a900461ffff16905086565b3373ffffffffffffffffffffffffffffffffffffffff1660055f8381526020019081526020015f205f9054906101000a900473ffffffffffffffffffffffffffffffffffffffff1673ffffffffffffffffffffffffffffffffffffffff1614806108f457503373ffffffffffffffffffffffffffffffffffffffff16600b5f8381526020019081526020015f205f9054906101000a900473ffffffffffffffffffffffffffffffffffffffff1673ffffffffffffffffffffffffffffffffffffffff16145b6108fc575f80fd5b6109078383836113f6565b505050565b610914610e06565b61091c575f80fd5b5f610925610ddf565b90508073ffffffffffffffffffffffffffffffffffffffff166108fc4790811502906040515f60405180830381858888f1935050505015801561096a573d5f803e3d5ffd5b5050565b60605f60065f8473ffffffffffffffffffffffffffffffffffffffff1673ffffffffffffffffffffffffffffffffffffffff1681526020019081526020015f205467ffffffffffffffff8111156109c8576109c7611e7a565b5b6040519080825280602002602001820160405280156109f65781602001602082028036833780820191505090505b5090505f805b600480549050811015610aae578473ffffffffffffffffffffffffffffffffffffffff1660055f8381526020019081526020015f205f9054906101000a900473ffffffffffffffffffffffffffffffffffffffff1673ffffffffffffffffffffffffffffffffffffffff1603610a9b5780838381518110610a8057610a7f6120d2565b5b6020026020010181815250508180610a97906122d7565b9250505b8080610aa6906122d7565b9150506109fc565b508192505050919050565b6005602052805f5260405f205f915054906101000a900473ffffffffffffffffffffffffffffffffffffffff1681565b610af1610e06565b610af9575f80fd5b8060075f6101000a81548173ffffffffffffffffffffffffffffffffffffffff021916908373ffffffffffffffffffffffffffffffffffffffff16021790555050565b6014828160048281548110610b5457610b536120d2565b5b905f5260205f2090600302016002015f9054906101000a900463ffffffff1663ffffffff161015610b83575f80fd5b8360055f8281526020019081526020015f205f9054906101000a900473ffffffffffffffffffffffffffffffffffffffff1673ffffffffffffffffffffffffffffffffffffffff163373ffffffffffffffffffffffffffffffffffffffff1614610beb575f80fd5b8360048681548110610c0057610bff6120d2565b5b905f5260205f209060030201600101819055505050505050565b5f60055f8381526020019081526020015f205f9054906101000a900473ffffffffffffffffffffffffffffffffffffffff169050919050565b5f60065f8373ffffffffffffffffffffffffffffffffffffffff1673ffffffffffffffffffffffffffffffffffffffff1681526020019081526020015f20549050919050565b610ca1610e06565b610ca9575f80fd5b5f73ffffffffffffffffffffffffffffffffffffffff165f8054906101000a900473ffffffffffffffffffffffffffffffffffffffff1673ffffffffffffffffffffffffffffffffffffffff167f8be0079c531659141344cd1fd0a4f28419497f9722a3daafe3b4186f6b6457e060405160405180910390a35f805f6101000a81548173ffffffffffffffffffffffffffffffffffffffff021916908373ffffffffffffffffffffffffffffffffffffffff160217905550565b5f60065f3373ffffffffffffffffffffffffffffffffffffffff1673ffffffffffffffffffffffffffffffffffffffff1681526020019081526020015f205414610dab575f80fd5b5f610db5826115c9565b9050606481610dc4919061234b565b81610dcf919061237b565b9050610ddb828261160c565b5050565b5f805f9054906101000a900473ffffffffffffffffffffffffffffffffffffffff16905090565b5f805f9054906101000a900473ffffffffffffffffffffffffffffffffffffffff1673ffffffffffffffffffffffffffffffffffffffff163373ffffffffffffffffffffffffffffffffffffffff1614905090565b6002838160048281548110610e7357610e726120d2565b5b905f5260205f2090600302016002015f9054906101000a900463ffffffff1663ffffffff161015610ea2575f80fd5b8460055f8281526020019081526020015f205f9054906101000a900473ffffffffffffffffffffffffffffffffffffffff1673ffffffffffffffffffffffffffffffffffffffff163373ffffffffffffffffffffffffffffffffffffffff1614610f0a575f80fd5b848460048881548110610f2057610f1f6120d2565b5b905f5260205f2090600302015f019182610f3b929190612555565b50505050505050565b610f4c610e06565b610f54575f80fd5b8060088190555050565b8160055f8281526020019081526020015f205f9054906101000a900473ffffffffffffffffffffffffffffffffffffffff1673ffffffffffffffffffffffffffffffffffffffff163373ffffffffffffffffffffffffffffffffffffffff1614610fc6575f80fd5b5f60048481548110610fdb57610fda6120d2565b5b905f5260205f20906003020190505f60048481548110610ffe57610ffd6120d2565b5b905f5260205f20906003020190505f611017606461186c565b9050600a5481116111815782600201600881819054906101000a900461ffff168092919061104490612622565b91906101000a81548161ffff021916908361ffff1602179055508360020160086101000a81548161ffff021916908361ffff160217905550826002015f81819054906101000a900463ffffffff168092919061109f9061264b565b91906101000a81548163ffffffff021916908363ffffffff160217905550836002015f6101000a81548163ffffffff021916908363ffffffff16021790555081600201600a81819054906101000a900461ffff168092919061110090612622565b91906101000a81548161ffff021916908361ffff16021790555082600201600a6101000a81548161ffff021916908361ffff16021790555061117c8683600101546040518060400160405280600681526020017f7a6f6d6269650000000000000000000000000000000000000000000000000000815250611263565b61123f565b82600201600a81819054906101000a900461ffff16809291906111a390612622565b91906101000a81548161ffff021916908361ffff16021790555083600201600a6101000a81548161ffff021916908361ffff16021790555081600201600881819054906101000a900461ffff16809291906111fd90612622565b91906101000a81548161ffff021916908361ffff1602179055508260020160086101000a81548161ffff021916908361ffff16021790555061123e836118c5565b5b505050505050565b61124f610e06565b611257575f80fd5b611260816118f8565b50565b8260055f8281526020019081526020015f205f9054906101000a900473ffffffffffffffffffffffffffffffffffffffff1673ffffffffffffffffffffffffffffffffffffffff163373ffffffffffffffffffffffffffffffffffffffff16146112cb575f80fd5b5f600485815481106112e0576112df6120d2565b5b905f5260205f20906003020190506112f7816119ea565b6112ff575f80fd5b6002548461130d919061234b565b93505f60028583600101546113229190612676565b61132c91906126a9565b905060405160200161133d9061272d565b60405160208183030381529060405280519060200120846040516020016113649190612771565b60405160208183030381529060405280519060200120036113a657606360648261138e919061234b565b82611399919061237b565b6113a39190612676565b90505b6113e56040518060400160405280600681526020017f4e6f4e616d6500000000000000000000000000000000000000000000000000008152508261160c565b6113ee826118c5565b505050505050565b611447600160065f8573ffffffffffffffffffffffffffffffffffffffff1673ffffffffffffffffffffffffffffffffffffffff1681526020019081526020015f2054611a1090919063ffffffff16565b60065f8473ffffffffffffffffffffffffffffffffffffffff1673ffffffffffffffffffffffffffffffffffffffff1681526020019081526020015f20819055506114d9600160065f8673ffffffffffffffffffffffffffffffffffffffff1673ffffffffffffffffffffffffffffffffffffffff1681526020019081526020015f2054611a3b90919063ffffffff16565b60065f8573ffffffffffffffffffffffffffffffffffffffff1673ffffffffffffffffffffffffffffffffffffffff1681526020019081526020015f20819055508160055f8381526020019081526020015f205f6101000a81548173ffffffffffffffffffffffffffffffffffffffff021916908373ffffffffffffffffffffffffffffffffffffffff160217905550808273ffffffffffffffffffffffffffffffffffffffff168473ffffffffffffffffffffffffffffffffffffffff167fddf252ad1be2c89b69c2b068fc378daa952ba7f163c4a11628f55a4df523b3ef60405160405180910390a4505050565b5f80826040516020016115dc9190612771565b604051602081830303815290604052805190602001205f1c905060025481611604919061234b565b915050919050565b60046040518060c00160405280848152602001838152602001600163ffffffff168152602001600354426116409190612676565b63ffffffff1681526020015f61ffff1681526020015f61ffff16815250908060018154018082558091505060019003905f5260205f2090600302015f909190919091505f820151815f0190816116969190612787565b50602082015181600101556040820151816002015f6101000a81548163ffffffff021916908363ffffffff16021790555060608201518160020160046101000a81548163ffffffff021916908363ffffffff16021790555060808201518160020160086101000a81548161ffff021916908361ffff16021790555060a082015181600201600a6101000a81548161ffff021916908361ffff16021790555050505f6001600480549050611749919061237b565b90503360055f8381526020019081526020015f205f6101000a81548173ffffffffffffffffffffffffffffffffffffffff021916908373ffffffffffffffffffffffffffffffffffffffff1602179055506117eb600160065f3373ffffffffffffffffffffffffffffffffffffffff1673ffffffffffffffffffffffffffffffffffffffff1681526020019081526020015f2054611a1090919063ffffffff16565b60065f3373ffffffffffffffffffffffffffffffffffffffff1673ffffffffffffffffffffffffffffffffffffffff1681526020019081526020015f20819055507f88f026aacbbecc90c18411df4b1185fd8d9be2470f1962f192bf84a27d0704b781848460405161185f93929190612856565b60405180910390a1505050565b5f60095f81548092919061187f906122d7565b919050555081423360095460405160200161189c939291906128f7565b604051602081830303815290604052805190602001205f1c6118be919061234b565b9050919050565b600354426118d39190612676565b8160020160046101000a81548163ffffffff021916908363ffffffff16021790555050565b5f73ffffffffffffffffffffffffffffffffffffffff168173ffffffffffffffffffffffffffffffffffffffff160361192f575f80fd5b8073ffffffffffffffffffffffffffffffffffffffff165f8054906101000a900473ffffffffffffffffffffffffffffffffffffffff1673ffffffffffffffffffffffffffffffffffffffff167f8be0079c531659141344cd1fd0a4f28419497f9722a3daafe3b4186f6b6457e060405160405180910390a3805f806101000a81548173ffffffffffffffffffffffffffffffffffffffff021916908373ffffffffffffffffffffffffffffffffffffffff16021790555050565b5f428260020160049054906101000a900463ffffffff1663ffffffff1611159050919050565b5f808284611a1e9190612676565b905083811015611a3157611a30612933565b5b8091505092915050565b5f82821115611a4d57611a4c612933565b5b8183611a59919061237b565b905092915050565b5f604051905090565b5f80fd5b5f80fd5b5f73ffffffffffffffffffffffffffffffffffffffff82169050919050565b5f611a9b82611a72565b9050919050565b611aab81611a91565b8114611ab5575f80fd5b50565b5f81359050611ac681611aa2565b92915050565b5f819050919050565b611ade81611acc565b8114611ae8575f80fd5b50565b5f81359050611af981611ad5565b92915050565b5f8060408385031215611b1557611b14611a6a565b5b5f611b2285828601611ab8565b9250506020611b3385828601611aeb565b9150509250929050565b5f60208284031215611b5257611b51611a6a565b5b5f611b5f84828501611aeb565b91505092915050565b5f8060408385031215611b7e57611b7d611a6a565b5b5f611b8b85828601611aeb565b9250506020611b9c85828601611aeb565b9150509250929050565b5f81519050919050565b5f82825260208201905092915050565b5f5b83811015611bdd578082015181840152602081019050611bc2565b5f8484015250505050565b5f601f19601f8301169050919050565b5f611c0282611ba6565b611c0c8185611bb0565b9350611c1c818560208601611bc0565b611c2581611be8565b840191505092915050565b611c3981611acc565b82525050565b5f63ffffffff82169050919050565b611c5781611c3f565b82525050565b5f61ffff82169050919050565b611c7381611c5d565b82525050565b5f60c0820190508181035f830152611c918189611bf8565b9050611ca06020830188611c30565b611cad6040830187611c4e565b611cba6060830186611c4e565b611cc76080830185611c6a565b611cd460a0830184611c6a565b979650505050505050565b5f805f60608486031215611cf657611cf5611a6a565b5b5f611d0386828701611ab8565b9350506020611d1486828701611ab8565b9250506040611d2586828701611aeb565b9150509250925092565b5f60208284031215611d4457611d43611a6a565b5b5f611d5184828501611ab8565b91505092915050565b5f81519050919050565b5f82825260208201905092915050565b5f819050602082019050919050565b611d8c81611acc565b82525050565b5f611d9d8383611d83565b60208301905092915050565b5f602082019050919050565b5f611dbf82611d5a565b611dc98185611d64565b9350611dd483611d74565b805f5b83811015611e04578151611deb8882611d92565b9750611df683611da9565b925050600181019050611dd7565b5085935050505092915050565b5f6020820190508181035f830152611e298184611db5565b905092915050565b611e3a81611a91565b82525050565b5f602082019050611e535f830184611e31565b92915050565b5f602082019050611e6c5f830184611c30565b92915050565b5f80fd5b5f80fd5b7f4e487b71000000000000000000000000000000000000000000000000000000005f52604160045260245ffd5b611eb082611be8565b810181811067ffffffffffffffff82111715611ecf57611ece611e7a565b5b80604052505050565b5f611ee1611a61565b9050611eed8282611ea7565b919050565b5f67ffffffffffffffff821115611f0c57611f0b611e7a565b5b611f1582611be8565b9050602081019050919050565b828183375f83830152505050565b5f611f42611f3d84611ef2565b611ed8565b905082815260208101848484011115611f5e57611f5d611e76565b5b611f69848285611f22565b509392505050565b5f82601f830112611f8557611f84611e72565b5b8135611f95848260208601611f30565b91505092915050565b5f60208284031215611fb357611fb2611a6a565b5b5f82013567ffffffffffffffff811115611fd057611fcf611a6e565b5b611fdc84828501611f71565b91505092915050565b5f8115159050919050565b611ff981611fe5565b82525050565b5f6020820190506120125f830184611ff0565b92915050565b5f80fd5b5f80fd5b5f8083601f84011261203557612034611e72565b5b8235905067ffffffffffffffff81111561205257612051612018565b5b60208301915083600182028301111561206e5761206d61201c565b5b9250929050565b5f805f6040848603121561208c5761208b611a6a565b5b5f61209986828701611aeb565b935050602084013567ffffffffffffffff8111156120ba576120b9611a6e565b5b6120c686828701612020565b92509250509250925092565b7f4e487b71000000000000000000000000000000000000000000000000000000005f52603260045260245ffd5b7f4e487b71000000000000000000000000000000000000000000000000000000005f52601160045260245ffd5b5f61213682611c3f565b915061214183611c3f565b9250828201905063ffffffff81111561215d5761215c6120ff565b5b92915050565b61216c81611fe5565b8114612176575f80fd5b50565b5f8151905061218781612163565b92915050565b5f8151905061219b81611ad5565b92915050565b5f805f805f805f805f806101408b8d0312156121c0576121bf611a6a565b5b5f6121cd8d828e01612179565b9a505060206121de8d828e01612179565b99505060406121ef8d828e0161218d565b98505060606122008d828e0161218d565b97505060806122118d828e0161218d565b96505060a06122228d828e0161218d565b95505060c06122338d828e0161218d565b94505060e06122448d828e0161218d565b9350506101006122568d828e0161218d565b9250506101206122688d828e0161218d565b9150509295989b9194979a5092959850565b7f4e487b71000000000000000000000000000000000000000000000000000000005f52602260045260245ffd5b5f60028204905060018216806122be57607f821691505b6020821081036122d1576122d061227a565b5b50919050565b5f6122e182611acc565b91507fffffffffffffffffffffffffffffffffffffffffffffffffffffffffffffffff8203612313576123126120ff565b5b600182019050919050565b7f4e487b71000000000000000000000000000000000000000000000000000000005f52601260045260245ffd5b5f61235582611acc565b915061236083611acc565b9250826123705761236f61231e565b5b828206905092915050565b5f61238582611acc565b915061239083611acc565b92508282039050818111156123a8576123a76120ff565b5b92915050565b5f82905092915050565b5f819050815f5260205f209050919050565b5f6020601f8301049050919050565b5f82821b905092915050565b5f600883026124147fffffffffffffffffffffffffffffffffffffffffffffffffffffffffffffffff826123d9565b61241e86836123d9565b95508019841693508086168417925050509392505050565b5f819050919050565b5f61245961245461244f84611acc565b612436565b611acc565b9050919050565b5f819050919050565b6124728361243f565b61248661247e82612460565b8484546123e5565b825550505050565b5f90565b61249a61248e565b6124a5818484612469565b505050565b5b818110156124c8576124bd5f82612492565b6001810190506124ab565b5050565b601f82111561250d576124de816123b8565b6124e7846123ca565b810160208510156124f6578190505b61250a612502856123ca565b8301826124aa565b50505b505050565b5f82821c905092915050565b5f61252d5f1984600802612512565b1980831691505092915050565b5f612545838361251e565b9150826002028217905092915050565b61255f83836123ae565b67ffffffffffffffff81111561257857612577611e7a565b5b61258282546122a7565b61258d8282856124cc565b5f601f8311600181146125ba575f84156125a8578287013590505b6125b2858261253a565b865550612619565b601f1984166125c8866123b8565b5f5b828110156125ef578489013582556001820191506020850194506020810190506125ca565b8683101561260c5784890135612608601f89168261251e565b8355505b6001600288020188555050505b50505050505050565b5f61262c82611c5d565b915061ffff82036126405761263f6120ff565b5b600182019050919050565b5f61265582611c3f565b915063ffffffff820361266b5761266a6120ff565b5b600182019050919050565b5f61268082611acc565b915061268b83611acc565b92508282019050808211156126a3576126a26120ff565b5b92915050565b5f6126b382611acc565b91506126be83611acc565b9250826126ce576126cd61231e565b5b828204905092915050565b5f81905092915050565b7f6b697474790000000000000000000000000000000000000000000000000000005f82015250565b5f6127176005836126d9565b9150612722826126e3565b600582019050919050565b5f6127378261270b565b9150819050919050565b5f61274b82611ba6565b61275581856126d9565b9350612765818560208601611bc0565b80840191505092915050565b5f61277c8284612741565b915081905092915050565b61279082611ba6565b67ffffffffffffffff8111156127a9576127a8611e7a565b5b6127b382546122a7565b6127be8282856124cc565b5f60209050601f8311600181146127ef575f84156127dd578287015190505b6127e7858261253a565b86555061284e565b601f1984166127fd866123b8565b5f5b82811015612824578489015182556001820191506020850194506020810190506127ff565b86831015612841578489015161283d601f89168261251e565b8355505b6001600288020188555050505b505050505050565b5f6060820190506128695f830186611c30565b818103602083015261287b8185611bf8565b905061288a6040830184611c30565b949350505050565b5f819050919050565b6128ac6128a782611acc565b612892565b82525050565b5f8160601b9050919050565b5f6128c8826128b2565b9050919050565b5f6128d9826128be565b9050919050565b6128f16128ec82611a91565b6128cf565b82525050565b5f612902828661289b565b60208201915061291282856128e0565b601482019150612922828461289b565b602082019150819050949350505050565b7f4e487b71000000000000000000000000000000000000000000000000000000005f52600160045260245ffdfea26469706673582212202e863f0be91dd3f7e9f15d046dd62a852d1927a8935065a735c9e0598909cc3b64736f6c63430008150033",
  "immutableReferences": {},
  "source": "// SPDX-License-Identifier: MIT\npragma solidity ^0.8.21;\n\nimport \"./zombieattack.sol\";\nimport \"./erc721.sol\";\nimport \"./safemath.sol\";\n\n// @title A contract that manages transferring zombie ownership\n// @author Ryo\n// @dev Compliant with OpenZeppelin's implementation of the ERC721 spec draft\ncontract ZombieOwnership is ZombieAttack, ERC721 {\n\n  using SafeMath for uint256;\n\n  mapping (uint => address) zombieApprovals;\n\n  function balanceOf(address _owner) external view override returns (uint256) {\n    return ownerZombieCount[_owner];\n  }\n\n  function ownerOf(uint256 _tokenId) external view override returns (address) {\n    return zombieToOwner[_tokenId];\n  }\n\n  function _transfer(address _from, address _to, uint256 _tokenId) private {\n    // 1. Replace with SafeMath's `add`\n    ownerZombieCount[_to] = ownerZombieCount[_to].add(1);\n    // 2. Replace with SafeMath's `sub`\n    ownerZombieCount[_from] = ownerZombieCount[_from].sub(1);\n    zombieToOwner[_tokenId] = _to;\n    emit Transfer(_from, _to, _tokenId);\n  }\n\n  function transferFrom(address _from, address _to, uint256 _tokenId) external override payable {\n    require (zombieToOwner[_tokenId] == msg.sender || zombieApprovals[_tokenId] == msg.sender);\n    _transfer(_from, _to, _tokenId);\n  }\n\n  function approve(address _approved, uint256 _tokenId) external override payable onlyOwnerOf(_tokenId) {\n    zombieApprovals[_tokenId] = _approved;\n    emit Approval(msg.sender, _approved, _tokenId);\n  }\n\n}\n",
  "sourcePath": "/Users/ryohei.fujihara/truffle-cryptozombies/contracts/zombieownership.sol",
  "compiler": {
    "name": "solc",
    "version": "0.8.21+commit.d9974bed.Emscripten.clang"
  },
  "schemaVersion": "3.4.16",
  "updatedAt": "2024-04-12T23:49:08.359Z",
  "devdoc": {
    "kind": "dev",
    "methods": {
      "isOwner()": {
        "returns": {
          "_0": "true if `msg.sender` is the owner of the contract."
        }
      },
      "owner()": {
        "returns": {
          "_0": "the address of the owner."
        }
      },
      "renounceOwnership()": {
        "details": "Allows the current owner to relinquish control of the contract."
      },
      "transferOwnership(address)": {
        "details": "Allows the current owner to transfer control of the contract to a newOwner.",
        "params": {
          "newOwner": "The address to transfer ownership to."
        }
      }
    },
    "version": 1
  },
  "userdoc": {
    "kind": "user",
    "methods": {
      "renounceOwnership()": {
        "notice": "Renouncing to ownership will leave the contract without an owner. It will not be possible to call the functions with the `onlyOwner` modifier anymore."
      }
    },
    "version": 1
  }
}